888880000118/05/2020VAC.EJE.CTE.PTE.LIQ.                    103100020000117124.35 0000000000.00
888880000218/05/2020CARGAS SOCIALES                         102900020000042164.77 0000000000.00
888880000218/05/2020VAC.EJE.CTE.PTE.LIQ.                    103100030000545362.86 0000000000.00
888880000318/05/2020CARGAS SOCIALES                         102900030000196330.63 0000000000.00
888880000318/05/2020VAC.EJE.CTE.PTE.LIQ.                    103100040000076400.73 0000000000.00
888880000418/05/2020CARGAS SOCIALES                         102900040000027504.26 0000000000.00
888880000418/05/2020VAC.EJE.CTE.PTE.LIQ.                    103100050000561157.69 0000000000.00
888880000518/05/2020CARGAS SOCIALES                         102900050000202016.77 0000000000.00
888880000518/05/2020VAC.EJE.CTE.PTE.LIQ.                    103100070000181779.36 0000000000.00
888880000618/05/2020CARGAS SOCIALES                         102900070000065440.57 0000000000.00
888880000618/05/2020VAC.EJE.CTE.PTE.LIQ.                    103100080000036692.88 0000000000.00
888880000718/05/2020CARGAS SOCIALES                         102900080000013209.44 0000000000.00
888880000718/05/2020VAC.EJE.CTE.PTE.LIQ.                    103100090000337060.92 0000000000.00
888880000818/05/2020CARGAS SOCIALES                         102900090000121341.93 0000000000.00
888880000818/05/2020VAC.EJE.CTE.PTE.LIQ.                    103100100000244719.23 0000000000.00
888880000918/05/2020CARGAS SOCIALES                         102900100000088098.92 0000000000.00
888880000918/05/2020VAC.EJE.CTE.PTE.LIQ.                    103100110000823543.56 0000000000.00
888880001018/05/2020CARGAS SOCIALES                         102900110000296475.68 0000000000.00
888880001018/05/2020VAC.EJE.CTE.PTE.LIQ.                    103100140000361720.38 0000000000.00
888880001118/05/2020CARGAS SOCIALES                         102900140000130219.34 0000000000.00
888880001118/05/2020VAC.EJE.CTE.PTE.LIQ.                    103100150000370562.50 0000000000.00
888880001218/05/2020CARGAS SOCIALES                         102900150000133402.50 0000000000.00
888880001218/05/2020VAC.EJE.CTE.PTE.LIQ.                    103100160000241911.25 0000000000.00
888880001318/05/2020CARGAS SOCIALES                         102900160000087088.05 0000000000.00
888880001318/05/2020VAC.EJE.CTE.PTE.LIQ.                    103100170000280412.65 0000000000.00
888880001418/05/2020CARGAS SOCIALES                         102900170000100948.55 0000000000.00
888880001418/05/2020VAC.EJE.CTE.PTE.LIQ.                    103100180000602020.57 0000000000.00
888880001518/05/2020CARGAS SOCIALES                         102900180000216727.41 0000000000.00
888880001518/05/2020VAC.EJE.CTE.PTE.LIQ.                    103100200000258966.40 0000000000.00
888880001618/05/2020CARGAS SOCIALES                         102900200000093227.90 0000000000.00
888880001618/05/2020VAC.EJE.CTE.PTE.LIQ.                    103100210000427556.64 0000000000.00
888880001718/05/2020CARGAS SOCIALES                         102900210000153920.39 0000000000.00
888880001718/05/2020VAC.EJE.CTE.PTE.LIQ.                    103100220001162514.01 0000000000.00
888880001818/05/2020CARGAS SOCIALES                         102900220000418505.04 0000000000.00
888880001818/05/2020VAC.EJE.CTE.PTE.LIQ.                    103100230000432694.01 0000000000.00
888880001918/05/2020CARGAS SOCIALES                         102900230000155769.84 0000000000.00
888880001918/05/2020VAC.EJE.CTE.PTE.LIQ.                    103100240000633082.73 0000000000.00
888880002018/05/2020CARGAS SOCIALES                         102900240000227909.78 0000000000.00
888880002018/05/2020VAC.EJE.CTE.PTE.LIQ.                    103100250000111854.12 0000000000.00
888880002118/05/2020CARGAS SOCIALES                         102900250000040267.48 0000000000.00
888880002118/05/2020VAC.EJE.CTE.PTE.LIQ.                    103100270000106217.79 0000000000.00
888880002218/05/2020CARGAS SOCIALES                         102900270000038238.40 0000000000.00
888880002218/05/2020VAC.EJE.CTE.PTE.LIQ.                    103100280000909274.07 0000000000.00
888880002318/05/2020CARGAS SOCIALES                         102900280000327338.67 0000000000.00
888880002318/05/2020VAC.EJE.CTE.PTE.LIQ.                    103100290000149828.48 0000000000.00
888880002418/05/2020CARGAS SOCIALES                         102900290000053938.25 0000000000.00
888880002418/05/2020VAC.EJE.CTE.PTE.LIQ.                    103100300000066436.86 0000000000.00
888880002518/05/2020CARGAS SOCIALES                         102900300000023917.27 0000000000.00
888880002518/05/2020VAC.EJE.CTE.PTE.LIQ.                    103100310001213131.72 0000000000.00
888880002618/05/2020CARGAS SOCIALES                         102900310000436727.42 0000000000.00
888880002618/05/2020VAC.EJE.CTE.PTE.LIQ.                    103100320000487016.67 0000000000.00
888880002718/05/2020CARGAS SOCIALES                         102900320000175326.00 0000000000.00
888880002718/05/2020VAC.EJE.CTE.PTE.LIQ.                    103100340000562269.40 0000000000.00
888880002818/05/2020CARGAS SOCIALES                         102900340000202416.98 0000000000.00
888880002818/05/2020VAC.EJE.CTE.PTE.LIQ.                    103100360000454052.76 0000000000.00
888880002918/05/2020CARGAS SOCIALES                         102900360000163458.99 0000000000.00
888880002918/05/2020VAC.EJE.CTE.PTE.LIQ.                    103100370000011870.30 0000000000.00
888880003018/05/2020CARGAS SOCIALES                         102900370000004273.31 0000000000.00
888880003018/05/2020VAC.EJE.CTE.PTE.LIQ.                    103100380000149420.60 0000000000.00
888880003118/05/2020CARGAS SOCIALES                         102900380000053791.42 0000000000.00
888880003118/05/2020VAC.EJE.CTE.PTE.LIQ.                    103100390000049122.57 0000000000.00
888880003218/05/2020CARGAS SOCIALES                         102900390000017684.13 0000000000.00
888880003218/05/2020VAC.EJE.CTE.PTE.LIQ.                    103100430000031140.20 0000000000.00
888880003318/05/2020CARGAS SOCIALES                         102900430000011210.47 0000000000.00
888880003318/05/2020VAC.EJE.CTE.PTE.LIQ.                    103100440000381712.36 0000000000.00
888880003418/05/2020CARGAS SOCIALES                         102900440000137416.45 0000000000.00
888880003418/05/2020VAC.EJE.CTE.PTE.LIQ.                    103100630000114981.72 0000000000.00
888880003518/05/2020CARGAS SOCIALES                         102900630000041393.42 0000000000.00
888880003618/05/2020LICENCIA 2019                           144300010000000000.00 0016991312.78
