888880000118/05/2020VAC.EJE.CTE.PTE.LIQ.                    103100440000096975.69 0000000000.00
888880000218/05/2020CARGAS SOCIALES                         102900440000034911.25 0000000000.00
888880000318/05/2020LICENCIA 2017                           018100010000000000.00 0000131886.94
